:020000040800F2
:10000000F80600206501000841050008D104000839
:1000100000000000000000000000000000000000E0
:100020000000000000000000000000005907000868
:100030000000000000000000950500080D08000801
:100040009501000895010008950100089501000838
:100050009501000895010008950100089501000828
:100060009501000895010008950100089501000818
:100070009501000895010008950100089501000808
:1000800071080008950100080000000095010008B3
:1000900095010008950100089501000895010008E8
:1000A000950100089501000895010008BD090008A8
:1000B0009501000800000000950100080000000004
:1000C00000F002F800F03EF80CA030C80838241800
:1000D0002D18A246671EAB4654465D46AC4201D180
:1000E00000F030F87E460F3E0FCCB6460126334274
:1000F00000D0FB1AA246AB46334318472C0C000035
:100100004C0C0000103A02D378C878C1FAD85207D4
:1001100001D330C830C101D504680C6070470000BD
:100120000023002400250026103A01D378C1FBD813
:10013000520700D330C100D50B6070471FB51FBDFB
:1001400010B510BD00F03AF91146FFF7F7FF00F0C7
:100150004BFD00F064F903B4FFF7F2FF03BC00F0BD
:1001600003FD00000F4880F308880F480168090E5E
:100170000E4A914205D10E480E4901600E480F49C2
:1001800001600F4880470F480047FEE7FEE7FEE7A3
:10019000FEE7FEE7FEE700000B480C490C4A0D4B5A
:1001A00070470000F8060020040000001F00000057
:1001B0001810024001000000000001400000000093
:1001C00011080008C1000008F8000020F80600200F
:1001D000F8020020F8020020704700000FB4054923
:1001E00010B503AA029800F0B9F810BC08BC04B01E
:1001F000184700002C000020002203098B422CD35A
:10020000030A8B4211D300239C464EE003460B4366
:100210003CD4002243088B4231D303098B421CD3C8
:10022000030A8B4201D394463FE0C3098B4201D3BA
:10023000CB01C01A524183098B4201D38B01C01AF2
:10024000524143098B4201D34B01C01A5241030969
:100250008B4201D30B01C01A5241C3088B4201D318
:10026000CB00C01A524183088B4201D38B00C01AC5
:10027000524143088B4201D34B00C01A5241411AEC
:1002800000D201465241104670475DE0CA0F00D0CF
:100290004942031000D34042534000229C460309C8
:1002A0008B422DD3030A8B4212D3FC22890112BA4E
:1002B000030A8B420CD3890192118B4208D3890126
:1002C00092118B4204D389013AD0921100E089093E
:1002D000C3098B4201D3CB01C01A524183098B421F
:1002E00001D38B01C01A524143098B4201D34B0108
:1002F000C01A524103098B4201D30B01C01A52416B
:10030000C3088B4201D3CB00C01A524183088B42F1
:1003100001D38B00C01A5241D9D243088B4201D37A
:100320004B00C01A5241411A00D201466346524165
:100330005B10104601D34042002B00D54942704764
:1003400063465B1000D3404201B50020C046C04662
:1003500002BD70477047704770470000084B70B58A
:100360000D467B4400F013F80446284600F022F8BE
:10037000002802D00020C04370BD204670BD0000A0
:100380006B08000001694A1C02610878704700B5DB
:100390008FB00291002105910549019379440391A1
:1003A00011460490684600F028F80FB000BD000028
:1003B000E5FFFFFFC068802108407047754600F0E8
:1003C00037F8AE46050069465346C008C00085466A
:1003D00018B020B5FFF7E0FE60BC00274908B6461C
:1003E0000026C0C5C0C5C0C5C0C5C0C5C0C5C0C544
:1003F000C0C5403D49008D467047F8B5064600240B
:100400004768806800903046F56803E00099B84777
:10041000641C3046A8470028F8D12046F8BD10B526
:100420000446C046C0462046FFF795FE10BD0000BA
:100430000048704798000020F0B5002201242346B0
:100440000D6893401D409D422AD10D79012D01D0A8
:10045000022D12D1876855000326AE40B74387604E
:100460004E79AE4085682E43866085889D438580A1
:1004700085888B7993401D4385800668550003234A
:10048000AB409E4306600E790768AE403E4306606F
:10049000C6689E43C660CB79AB40C5682B43C3603A
:1004A000521C102ACBD3F0BD4B07DB0E9A40C90873
:1004B00010B589000818016A0F249C40A14301620D
:1004C000016A1143016210BD018570478161704767
:1004D000FEE70000FEB525200121400400F05CF895
:1004E0002020009001256846057100248471C471A4
:1004F0000326467169461048FFF79EFF07200090CB
:10050000684605718471C471467169460B48FFF7EE
:1005100093FFEF026846009705718471C471092446
:100520004671E40669462046FFF786FF39462046B5
:10053000FFF7CCFFFEBD0000001400480008004893
:100540007047000030B5837801210278002B15D068
:1005500094080E4BA400E41823689207D50EFF22DE
:10056000AA40934342789207120EAA401A4322608F
:100570000078C006C00E8140054804E0D006C00ED9
:10058000814003488030016030BD000000E400E09D
:1005900000E100E070470000044A0029516901D0E1
:1005A000014300E0814351617047000000100240A8
:1005B000044A0029D16901D0014300E08143D1619F
:1005C0007047000000100240044A0029916901D0E0
:1005D000014300E081439161704700000010024038
:1005E000F8B5564D0446686800210C22544E104060
:1005F00005D0042803D0082803D00C281AD0266080
:100600001AE06968686803228902D2030F0F10405C
:10061000BF1C00280AD0E86A0107090F3046491CB0
:10062000FFF7EAFD78430146216005E04548394679
:100630004143F9E7444820606868444F0006000FD2
:100640003B5C20680246DA4062606B685B055B0FCA
:10065000FB5CDA40A2602B6BDB0501D43C4B05E070
:100660006B685B0401D4530800E09308E3602B6BD4
:100670005F06384B03D4374F1237276100E0236100
:100680002F6BFF0601D4666100E060612F6BBF072E
:100690000ED02F6BBF07BF0F012F0BD02F6BBF07E3
:1006A000BF0F022F08D02F6BFF43BF0706D006E015
:1006B000A26104E0A06102E0A36100E0A6612F6BEB
:1006C000BF03BF0F0FD02F6BBF03BF0F012F0CD085
:1006D0002F6BBF03BF0F022F09D02F6BBF03BF0FBC
:1006E000032F06D006E0E26104E0E06102E0E3618E
:1006F00000E0E6612F6B3F03BF0F0FD02A6B1203A0
:10070000920F012A0CD0286B0003800F022809D019
:10071000286B0003800F032806D006E0226204E065
:10072000206202E0236200E02662286B000602D409
:1007300005486062F8BD6162F8BD0000001002402B
:1007400000127A0000093D00006CDC021400002059
:10075000809FD50000800000704700001CB500217C
:10076000224801910091026801231B041A43026090
:100770005B000522120304681C400094019C641C69
:100780000194009C002C02D1019C9442F3D1026898
:10079000920328D501210091154A11211160416869
:1007A00041604168416041687F22D20391434160CA
:1007B00041681122120411434160016801221206AE
:1007C0001143016001688901FCD5416889088900ED
:1007D0004160416802221143416041680907890F65
:1007E0000229FAD11CBD00911CBD0000001002407E
:1007F00000200240042204490428086902D09043E2
:10080000086170471043FBE700E000E0704700001C
:1008100010B5144801680122114301604168124A71
:10082000114041600168114A1140016001680122D4
:1008300092049143016041683F2212049143416058
:10084000C16A09090901C162016BFF225432914357
:100850000163416B49084900416300218160FFF752
:100860007DFF10BD001002400CB8FFF8FFFFF6FE40
:1008700010B50D4C0121204600F051F8002811D090
:100880000121204600F03EF808480178491CC9B211
:100890000170C82906D1002101700548818A2022F3
:1008A0005140818210BD000000040040280000205B
:1008B000001400487FB50C46054601210220FFF7D1
:1008C00077FE6A4601951480002010810C4C508000
:1008D0006946204600F038F801221146204600F013
:1008E0002AF810206A46107301215173917303A8EE
:1008F000FFF728FE0121204600F007F87FBD000029
:1009000000040040C943018270470029018802D0D9
:100910000122114301E04908490001807047024665
:10092000138A002092890B400A40002B02D0002A33
:1009300000D001207047002A828901D00A4300E0DC
:100940008A4382817047000010B50288144B984298
:1009500006D00124A407A04202D0124CA04203D129
:100960007024A2434C8822430F4CA04203D00F4C6A
:1009700022400C89224302804A68C2620A880285AA
:10098000984208D00A4A904205D00A4A904202D0C2
:10099000094A904201D1897A01860121818210BDE4
:1009A000002C01400004004000100040FFFC00004B
:1009B00000400140004401400048014070B51A4E1B
:1009C0001849304600F047F80025184C002817D089
:1009D000304600F0C5F86179C0B2012903D16571D4
:1009E0002571E571A5712179104A603A505420793A
:1009F000401C20712079642801D300F075F970BD86
:100A00000B49304600F027F80028F8D01021304676
:100A100000F010F801206071E0712079A07125715B
:100A200070BD000005010500003801409000002065
:100A300004010400016270470A0C01219140016227
:100A400070470029016802D00122114301E04908E2
:100A500049000160704730B50A04130E01221446A4
:100A600000258C40012B0ED0022B0ED08368090C80
:100A70002340C0698A401040002B02D0002800D0DB
:100A80000125284630BD0368F1E74368EFE710B55C
:100A90000B041C0E01238B40022C02D0032C02D02D
:100AA00002E0001D00E008300168002A01D019436F
:100AB00000E09943016010BD30B5044600688BB07A
:100AC0000D46400840002060606803210903884308
:100AD000A9680143616020681C49EA6808406968A8
:100AE00011432A69024311432160A06803210902CE
:100AF000884369690143A1606846FFF771FD1448A6
:100B0000844201D106980AE01248844201D1079834
:100B100005E01148844201D1089800E0029821685C
:100B20000904296800D54000FFF766FB2A685208CF
:100B30008A4200D8401C2168090404D50107074AED
:100B4000490F10400843A0810BB030BDF3E9FFFF0F
:100B5000003801400044004000480040F0FF000021
:100B6000808CC005C00D70477047000010B5042090
:100B7000C043FFF73FFE074805490068FFF73CFB0D
:100B80000549C0B27D220870D2005043488010BD94
:100B900000127A0000000020240000200A49498841
:100BA00048430A49486100228A61086901231843C1
:100BB00008610869C30701D0C003FAD50869400875
:100BC000400008618A6170472400002000E000E0D6
:100BD0000449CA695206FCD5024AC1B220321181C9
:100BE0007047000000380140FFF7C0FF472111485F
:100BF000FFF760FEE120400200F020F8FFF76AFCFA
:100C00007D260124F600E4020925ED063046FFF7B3
:100C1000C5FF21462846FFF759FC07A0FFF7DEFA7B
:100C20000A20FFF7BBFF21462846FFF74DFC00F0E6
:100C300071F8EBE78713000061610000F1B5012155
:100C40008AB08803FFF7C0FC01214804FFF7A4FC29
:100C50000921CF0601223846FFF726FC01220A218E
:100C60003846FFF721FC032040020090032168462C
:100C7000417102250571002484710126C6716946FF
:100C80003846FFF7D9FB1B21684601724572867210
:100C900002A8FFF757FC0A98089404940594069458
:100CA00003900C200C4C079003A92046FFF704FF8B
:100CB0000A492046FFF7C0FE012209492046FFF7F6
:100CC000E6FE012207492046FFF7E1FE012120460A
:100CD000FFF7B7FE0BB0F0BD00380140060106007B
:100CE00005010500040104000949002210B5084669
:100CF0001346603002E08B54521CD2B28479944285
:100D0000F9D80B700371C37101214171837110BD5A
:100D1000300000200348C179012901D10021C171AF
:100D20007047000090000020480D000800000020DF
:100D30003000000004010008780D00083000002099
:100D4000C806000020010008006CDC020000000062
:100D5000000000000102030406070809000000006B
:100D60000102030401020304060708090000000051
:080D700000000000000000007B
:04000005080000C12E
:00000001FF
