:020000040800F2
:10000000E80B0020CD010008D5010008D701000849
:10001000D9010008DB010008DD0100080000000034
:10002000000000000000000000000000DF010008E8
:10003000E101000800000000E3010008E5010008FC
:10004000E7010008E7010008E7010008E7010008F0
:10005000E7010008E7010008E7010008E7010008E0
:10006000E7010008E7010008E7010008E7010008D0
:10007000E7010008E7010008E7010008E7010008C0
:10008000E7010008E7010008E7010008E7010008B0
:10009000E7010008E7010008E7010008E7010008A0
:1000A000E7010008E7010008E7010008E701000890
:1000B00051120008E7010008E7010008E701000805
:1000C000E7010008E7010008E7010008E701000870
:1000D000E7010008E7010008E7010008E701000860
:1000E000E7010008E7010008E7010008E701000850
:1000F000E7010008E7010008E7010008E701000840
:10010000E7010008E7010008E7010008E70100082F
:10011000E7010008E7010008E7010008E70100081F
:10012000E7010008E7010008E7010008E70100080F
:1001300000F002F800F03AF80AA090E8000C8244BF
:100140008344AAF10107DA4501D100F02FF8AFF29C
:10015000090EBAE80F0013F0010F18BFFB1A43F0A5
:1001600001031847E8190000081A0000103A24BFDC
:1001700078C878C1FAD8520724BF30C830C144BF0C
:1001800004680C607047000000230024002500264E
:10019000103A28BF78C1FBD8520728BF30C148BFEA
:1001A0000B6070471FB51FBD10B510BD00F0A8F85B
:1001B0001146FFF7F7FF01F049FC00F0C6F803B461
:1001C000FFF7F2FF03BC00F0CDF8000009488047BC
:1001D00009480047FEE7FEE7FEE7FEE7FEE7FEE729
:1001E000FEE7FEE7FEE7FEE704480549054A064B41
:1001F00070470000F111000831010008E8050020F7
:10020000E80B0020E8070020E8070020032A40F25E
:10021000308010F0030C00F0158011F8013BBCF1A8
:10022000020F624498BF11F801CB00F8013B38BFC0
:1002300011F8013BA2F1040298BF00F801CB38BFCE
:1002400000F8013B11F0030300F02880083AC0F0E9
:10025000088051F8043B083A51F804CBA0E8081094
:10026000F5E7121D5CBF51F8043B40F8043BAFF3C7
:100270000080D20724BF11F8013B11F801CB48BF21
:1002800011F8012B24BF00F8013B00F801CB48BF57
:1002900000F8012B704770477047704710B5203A3F
:1002A000C0F00B80B1E81850203AA0E81850B1E82F
:1002B0001850A0E81850BFF4F5AF5FEA027C24BFE5
:1002C000B1E81850A0E8185044BF18C918C0BDE8DC
:1002D00010405FEA827C24BF51F8043B40F8043BA5
:1002E00008BF7047D20728BF31F8023B48BF11F85A
:1002F000012B28BF20F8023B48BF00F8012B7047B4
:10030000754600F02BF8AE4605006946534620F0CE
:100310000700854618B020B5FFF766FFBDE820400E
:100320004FF000064FF000074FF000084FF0000BB1
:1003300021F00701AC46ACE8C009ACE8C009ACE864
:10034000C009ACE8C0098D46704710B50446AFF34C
:1003500000802046BDE81040FFF731BF00487047DD
:100360008405002001491820ABBEFEE726000200EC
:10037000704710B500220121880701F09AF800218A
:100380004FF0804000F083FF10BD1FB54FF47A742A
:100390000121084600F0A2FBE00600F085FF0020E6
:1003A000ADF80200ADF80600601EADF8040047206D
:1003B000ADF800006946E00601F086F81C208DF8D3
:1003C0000C000A208DF80D0000208DF80E00012091
:1003D0008DF80F0003A800F049FB0021E00601F0B2
:1003E00071F801221146900701F063F80121880796
:1003F00000F04DFF1FBD000030B5044604254FF44A
:10040000302000F08DF80546042D17D10C48006906
:1004100040F002000A49086108464461006940F062
:10042000400008614FF4302000F07AF80546044897
:10043000006941F6FD71084001490861284630BD58
:100440000020024004200B49C96801F0010109B1F4
:1004500001200EE00749C96801F0040109B102203A
:1004600007E00449C96801F0100109B1032000E068
:1004700004207047002002400148006A70470000D5
:100480000020024001B500200099C1F30A021AB110
:10049000012202EBD12000E0C80A08BD78B506466B
:1004A0000C46042500200090E80200F039F80546CB
:1004B000042D24D11348006940F00100114908615E
:1004C0003480E80200F02CF80546042D10D1B01C51
:1004D0000090200C00990880E80200F021F8054601
:1004E0000848006941F6FE7108400649086106E0C7
:1004F0000448006941F6FE71084002490861284637
:1005000078BD0000002002400248034948600348CB
:10051000486070472301674500200240AB89EFCD5A
:1005200000B502460423FFF78DFF034603E0FFF703
:1005300089FF0346521E012B01D1002AF7D102B9CF
:100540000523184600BD000008B50121142000F065
:10055000E5FA1020ADF8000003208DF8020010200D
:100560008DF8030069461C4800F03AF84FF48051BA
:10057000194800F0C2F84020ADF8000003208DF8C3
:10058000020010208DF803006946144800F028F896
:100590004021124800F0AFF8012144F2040000F0BD
:1005A000BDFA4FF40070ADF8000018208DF803007C
:1005B00003208DF802006946074800F011F84FF457
:1005C0008060ADF8000004208DF803006946024801
:1005D00000F006F808BD00000008014000100140CE
:1005E0002DE9F041024600250026002000230024CA
:1005F000002791F803C00CF00F0591F803C00CF030
:10060000100CBCF1000F03D091F802C04CEA0505B4
:1006100091F800C0BCF1000F31D0146800202BE02D
:100620004FF0010C0CFA00F3B1F800C00CEA03061D
:100630009E4220D183004FF00F0C0CFA03F7BC430D
:1006400005FA03FC4CEA040491F803C0BCF1280F3E
:1006500006D14FF0010C0CFA00FCC2F814C00AE0FD
:1006600091F803C0BCF1480F05D14FF0010C0CFA12
:1006700000FCC2F810C0401C0828D1D31460B1F8A7
:1006800000C0BCF1FF0F34DD546800202EE000F103
:10069000080C4FF0010808FA0CF3B1F800C00CEA9E
:1006A00003069E4221D183004FF00F0C0CFA03F792
:1006B000BC4305FA03FC4CEA040491F803C0BCF106
:1006C000280F05D100F1080C08FA0CF8C2F81480C4
:1006D00091F803C0BCF1480F07D100F1080C4FF0AE
:1006E000010808FA0CF8C2F81080401C0828CED384
:1006F0005460BDE8F08141617047016170470000BE
:1007000008B50020009004E0684600F043FC00B10A
:100710000AE00748406840F6B831884201DC012011
:1007200000E000200028EFD100BF9DF8000008BDC8
:100730004800002070B505460C467D2000F082FA86
:1007400008B100F00BFA45F2555000F02BF828469E
:1007500000F01CF8204600F01FF800F00FF800F041
:1007600001F870BD4CF6CC400149086070470000AC
:100770000030004010B500F001F810BD4AF6AA2084
:10078000014908607047000000300040014948609E
:100790007047000000300040014988607047000049
:1007A0000030004001490860704700000030004000
:1007B000F0B5144A00250024002320E0B1FBF2F636
:1007C000303606F0FF0C2E466D1C00F806C0B1FB5B
:1007D000F2F602FB16110A26B2FBF6F26E1E865DD9
:1007E000302E01D1012600E000260CB9012700E0DF
:1007F00000273E400EB1002500E0641C5B1C0A2B64
:10080000DCD3F0BD00CA9A3B10B500245F480068F5
:10081000A0F10060000B5E490860084600683E28B1
:1008200008D20846017801208840401EC04359493B
:10083000086003E04FF0004056490860FFF71CFED7
:1008400054490968084053490968884203D0012087
:100850005149086002E000204F49086089E04F4894
:10086000007810B101287DD117E040214C48FFF7F6
:1008700044FF4CA000F0BAFB5AA000F0B7FB68A000
:1008800000F0B4FBC82001F0D3F840214448FFF742
:1008900032FF0120414908706AE040214048FFF7DB
:1008A0002CFFC82001F0C4F840213D48FFF723FF8A
:1008B000FFF726FF0446312C23D140F635410420B2
:1008C000FFF738FF40213648FFF717FF56A000F02A
:1008D0008DFBC82001F0ACF840213148FFF70BFF39
:1008E00000F044FA40212E48FFF707FF50A000F027
:1008F0007DFBC82001F09CF840212948FFF7FBFE52
:1009000024E0322C22D140212548FFF7F6FE4AA0F0
:1009100000F06CFB4AA000F069FBC82001F088F8E9
:1009200040211F48FFF7E7FEFFF723FD48484068D6
:100930004849086008460068474908604449086813
:1009400080F3088800BF444800688047402114486D
:10095000FFF7D3FE41A000F049FBC82001F068F882
:10096000402100E003E00E48FFF7C5FE00BF00BFD6
:1009700000BF3D484068B0F5967F01DC012000E0F3
:10098000002000287FF46BAF10BD0000180000208D
:10099000080000200C00002010000020140000209F
:1009A000001001400D2A2A2A2A2A2A2A2A2A2A2A1B
:1009B0002A2A2A2A2A2A2A2A2A2A2A2A2A2A2A2A97
:1009C0002A2A2A2A2A2A2A2A2A2A2A2A2A2A2A2A87
:1009D0002A2A2A2A2A2A2A2A2A2A2A2A2A2A0D0AB4
:1009E000000000002A2A2A2A2A2A2A2A2A2A2A2A0F
:1009F0002A2A2A2A2A2A2A2A2A2A2A2A2A2A2A2A57
:100A00002A2A2A2A2A2A2A2A2A2A2A2A2A2A2A2A46
:100A10002A2A2A2A2A2A2A2A2A2A2A2A2A0D0A009D
:100A200061616161610D0A006363630D0A0000008A
:100A30000D6F6B0A0D0000006464640D0A00000075
:100A4000776F726B696E672E2E2E0D0A0000000004
:100A50000030000804000020000000200D776F72B5
:100A60006B6F6B0A0D0000004800002070B500217C
:100A700000230F22C47804B3154C246804F4E06406
:100A8000C4F5E064210AC1F10403CA40447804FAC1
:100A900003F184781440214309010E4C0678A155D6
:100AA000047804F01F050124AC4005786D11AD00F9
:100AB00005F1E025C5F8004109E0047804F01F05C0
:100AC0000124AC40044D0678761145F8264070BDEF
:100AD0000CED00E000E400E080E100E029B1064A0E
:100AE000D2690243044BDA6104E0034AD2698243CB
:100AF000014BDA61704700000010024029B1064A3C
:100B000012690243044B1A6104E0034A12698243EA
:100B1000014B1A61704700000010024029B1064ADB
:100B200092690243044B9A6104E0034A926982434A
:100B3000014B9A61704700000010024029B1064A3B
:100B4000D2680243044BDA6004E0034AD26882436D
:100B5000014BDA6070470000001002400348406A11
:100B600040F0807001494862704700000010024068
:100B700030B500210022002400232D4D6D6805F0C2
:100B80000C0121B1042905D0082923D105E0294D04
:100B9000056022E0274D05601FE0254D6D6805F4D6
:100BA0007012234D6D6805F48034022505EB9242E6
:100BB0001CB9214D554305600BE01D4D6D6805F4D2
:100BC00000351DB11C4D5543056002E0194D5543DC
:100BD000056002E0174D056000BF00BF144D6D6851
:100BE00005F0F0010909154D6B5C0568DD404560B5
:100BF0000F4D6D6805F4E061090A104D6B5C4568A6
:100C0000DD4085600A4D6D6805F46051C90A0B4DE1
:100C10006B5C4568DD40C560054D6D6805F440417D
:100C2000890B074D6B5CC568B5FBF3F5056130BDFD
:100C30000010024000127A0000093D00310000203F
:100C40004100002010B501460022002300204A1177
:100C5000012A02D1094C236806E0022A02D1074C7E
:100C6000236A01E0054C636A01F01F0201249440ED
:100C70001C400CB1012000E0002010BD001002401B
:100C800070B505460C4606E0284600F083F90128B9
:100C900001D1002070BD201EA4F10104F4D1401E3A
:100CA000F8E72DE9F84304460D46904600202860F9
:100CB00041466846FFF7E4FF18B14FF0FF30BDE84A
:100CC000F8839DF80000182813D006DC012809D00D
:100CD000022809D0042820D109E041281AD061282F
:100CE0001BD118E080271BE04FF4806718E000203C
:100CF000E5E741466846FFF7C3FF40B99DF80000AD
:100D0000182804D14FF0FF3028600020D7E74FF0BB
:100D1000FF30D4E700BF0120D1E74FF0FF30CEE72E
:100D200000BF9DF800002070012609E0A01941468F
:100D3000FFF7A6FF10B14FF0FF30C0E7701C86B27E
:100D4000781D8642F2DB6178A07880F0FF00814256
:100D500002D04FF0FF30B2E72F600020AFE710B5B0
:100D60000446204600F028F9002010BD3EB542A2FE
:100D700007CA8DE80700002440214248FFF7BDFC68
:100D800041A000F033F940213E48FFF7B4FC4D4844
:100D900000F094FC0446002C2CDD40213948FFF77C
:100DA000ACFC494800F022F9484800F01FF9C8207F
:100DB00000F03EFE40213348FFF79DFC2146684687
:100DC000FFF7F6FC40212F48FFF797FC40A000F00A
:100DD0000DF9684600F00AF940A000F007F942A0BA
:100DE00000F004F9C82000F023FE40212548FFF759
:100DF00082FC40E0601C70B940212248FFF77DFC76
:100E00003FA000F0F3F8C82000F012FE40211D487A
:100E1000FFF771FC2FE0A01C70B940211948FFF7C3
:100E20006CFC47A000F0E2F8C82000F001FE402171
:100E30001448FFF760FC1EE0E01C70B94021114827
:100E4000FFF75BFC45A000F0D1F8C82000F0F0FDF2
:100E500040210C48FFF74FFC0DE040210948FFF707
:100E60004CFC44A000F0C2F8C82000F0E1FD402195
:100E70000448FFF740FC3EBD2020202020202020F9
:100E8000202000000010014057616974696E6720DE
:100E9000666F72207468652066696C6520746F20C7
:100EA00062652073656E74202E2E2E202870726568
:100EB00073732027612720746F2061626F72742919
:100EC0000A0D000084010020F81A000884000020A8
:100ED0000A0D2053697A653A200000002042797497
:100EE00065730D0A000000002D2D2D2D2D2D2D2DAB
:100EF0002D2D2D2D2D2D2D2D2D2D2D0A00000000F9
:100F00000A0A0D54686520696D6167652073697A06
:100F10006520697320686967686572207468616E0E
:100F20002074686520616C6C6F77656420737061F4
:100F30006365206D656D6F7279210A0D00000000F8
:100F40000A0A0D566572696669636174696F6E207D
:100F50006661696C6564210A0D0000000D0A0A4192
:100F6000626F7274656420627920757365722E0AEF
:100F70000D0000000A0D4661696C656420746F20E5
:100F800072656365697665207468652066696C655D
:100F9000210A0D0010B504462021064800F010FB80
:100FA00028B10448001D00882070012010BD0020D9
:100FB000FCE700000038014010B504464021094814
:100FC000FFF79BFB2146084800F074FB00BF40215F
:100FD000054800F0F5FA0028F9D040210148FFF754
:100FE0008AFB10BD001001400038014010B50446D6
:100FF00003E02078FFF7E0FF641C20780028F8D198
:1010000010BD10B500F002F810BD00000CB50020B6
:10101000019000903348006840F480303149086006
:1010200000BF3048006800F4003000900198401C78
:101030000190009818B90198B0F5A06FF1D1294836
:10104000006800F4003010B10120009001E00020A1
:1010500000900098012843D12348006840F0100018
:10106000214908600846006820F00300086008462F
:10107000006840F0020008601A484068194948605A
:101080000846406848600846406840F48060486010
:101090000846406820F47C1048600846406840F4E8
:1010A000E81048600846006840F08070086000BFA3
:1010B0000C48006800F000700028F9D0094840682A
:1010C00020F00300074948600846406840F00200ED
:1010D000486000BF0348406800F00C000828F9D1C0
:1010E0000CBD0000001002400020024070B5024616
:1010F0000C460021002500231078302843D1507879
:10110000782802D0507858283DD1907808B900202E
:1011100070BD022130E0505C10B9236001252DE044
:10112000505C412802DB505C46280BDD505C612896
:1011300002DB505C662805DD505C302819DB505C12
:10114000392816DC505C302805DB505C392802DC7D
:10115000505C30380AE0505C412805DB505C462882
:1011600002DC505C373801E0505C573800EB031369
:1011700001E0002502E0491C0B29CCD300BF0B295C
:1011800034D3002532E000212AE0505C10B92360FE
:10119000012527E0505C6B2802D0505C4B2804D11D
:1011A00019B19B02236001251CE0505C6D2802D020
:1011B000505C4D2804D119B11B052360012511E0B5
:1011C000505C302809DB505C392806DC505C303834
:1011D00003EB830600EB460301E0002502E0491C17
:1011E0000B29D2D300BF0B2900D3002528468FE757
:1011F00010B51348006840F0010011490860084626
:101200004068104908400E494860084600680E4989
:1012100008400B4908600846006820F480200860F8
:101220000846406820F4FE0048604FF41F008860C4
:10123000FFF7E7FE4FF000600449086010BD0000B2
:10124000001002400000FFF8FFFFF6FE08ED00E08E
:1012500010B500240121880700F01AF9012810D1E7
:101260000121800700F010F800BF08E0054850F8A1
:101270002400401C034941F82400601C84B2042C63
:10128000F4DB10BD48000020CA430282704721B140
:10129000028842F00102028004E002884FF6FE73E9
:1012A0001A4002807047000010B504466848844226
:1012B00008D10121C014FFF741FC0021E014FFF721
:1012C0003DFCC4E0B4F1804F08D101210846FFF78E
:1012D00015FC00210120FFF711FCB8E05D488442B5
:1012E00008D101210220FFF709FC00210220FFF7AD
:1012F00005FCACE05848844208D101210420FFF7E6
:10130000FDFB00210420FFF7F9FBA0E053488442D5
:1013100008D101210820FFF7F1FB00210820FFF789
:10132000EDFB94E04E48844208D101211020FFF7E4
:10133000E5FB00211020FFF7E1FB88E049488442EB
:1013400008D101212020FFF7D9FB00212020FFF741
:10135000D5FB7CE04448844208D101214014FFF7CA
:10136000EDFB00216014FFF7E9FB70E03F48844289
:1013700009D10121C804FFF7E1FB00214FF400204F
:10138000FFF7DCFB63E03A48844209D101210805FC
:10139000FFF7D4FB00214FF48010FFF7CFFB56E09E
:1013A0003448844209D101214805FFF7C7FB0021D9
:1013B0004FF40010FFF7C2FB49E02F48844208D1E8
:1013C00001214020FFF79AFB00214020FFF796FB08
:1013D0003DE02A48844208D101218020FFF78EFB9E
:1013E00000218020FFF78AFB31E02548844208D1A4
:1013F00001218015FFF782FB0021A015FFF77EFB7E
:1014000025E02048844209D101210804FFF796FB1A
:1014100000214FF48030FFF791FB18E01A48844216
:1014200009D101214804FFF789FB00214FF4003066
:10143000FFF784FB0BE01548844208D101218804A2
:10144000FFF77CFB00214FF48020FFF777FB10BDF6
:10145000002C01400004004000080040000C004047
:10146000001000400014004000340140004C0140D6
:10147000005001400054014000180040001C004092
:10148000002000400040014000440140004801406D
:1014900030B50246002000230024158A05EA010326
:1014A000958905EA010413B10CB1012000E0002088
:1014B00030BD1AB183890B43838102E083898B435A
:1014C0008381704781847047002202881D4B9842B7
:1014D0000ED01D4B98420BD0B0F1804F08D01B4B63
:1014E000984205D01A4B984202D01A4B984204D128
:1014F0004FF68F731A404B881A43174B984207D008
:10150000164B984204D04FF6FF431A40CB881A433B
:1015100002808B8883850B8803850A4B98420BD009
:10152000094B984208D00E4B984205D00D4B98427B
:1015300002D00D4B984201D10B7A0386012383829E
:1015400070470000002C01400034014000040040BE
:1015500000080040000C0040001000400014004053
:101560000040014000440140004801401FB54FF4D5
:10157000E13000900020ADF80400ADF80600ADF8B1
:101580000800ADF80C000C20ADF80A00FEF7DCFFF7
:101590006946044800F022F80121024800F004F8EE
:1015A0001FBD00000038014021B1828942F4005281
:1015B000828104E082894DF6FF731A408281704770
:1015C00002460020B1F5007F00D100BF13880B4018
:1015D0000BB1012000E00020704700002DE9F0472A
:1015E00086B005460E460024A24600BFA14600274D
:1015F000B08900B100BF2F462C8A4CF6FF70044022
:10160000F08804432C82AC894EF6F3100440B08875
:1016100031890843718908430443AC81AC8A4FF691
:10162000FF400440B0890443AC8201A8FFF7A0FA50
:101630001F48874202D1DDF810A001E0DDF80CA0C0
:10164000A88900F4004040B10AEBCA0000EB0A1080
:1016500031684900B0FBF1F807E00AEBCA0000EB83
:101660000A1031688900B0FBF1F86420B8FBF0F093
:1016700004012009642101FB1089A88900F40040BD
:1016800040B1322000EBC900B0FBF1F000F00700E0
:10169000044308E0322000EB09106421B0FBF1F0B4
:1016A00000F00F0004432C8106B0BDE8F087000075
:1016B00000380140C1F30802828070472DE9F04FE5
:1016C000ADF22C4D064600200190CF48CF4908606E
:1016D0004FF0000B4FF0000A0020029000BF0027DF
:1016E00000200390B04600BFFFF744F84FF480128B
:1016F00004A909A8FFF7D5FA10B101287DD12AE184
:101700004FF0000A0498B0F1FF3F01D020BB12E077
:101710004021BF48FEF7F1FF0620FFF720FBC8205D
:1017200000F086F94021BA48FEF7E5FF00200DF2EF
:101730002C4DBDE8F08F4021B548FEF7DEFF0620B6
:10174000FFF70DFBC82000F073F94021B048FEF709
:10175000D2FF01200390FCE09DF82500F9B28842F9
:101760000ED04021AA48FEF7C8FF1520FFF7F7FA70
:10177000C82000F05DF94021A548FEF7BCFFE8E075
:10178000002F7DD19DF8270000287BD000250DF18A
:10179000270405E014F8012B28466D1C9D490A54C6
:1017A000207808B1FF2DF5DD002228466D1C9949EF
:1017B0000A540025641C05E014F8012B28466D1C12
:1017C00005A90A542078202801D0102DF4DB00222E
:1017D00028466D1C05A90A5401A905A8FFF786FC37
:1017E0000198B0F5802F15DB40218948FEF785FF71
:1017F0001820FFF7B4FA182000E0C0E0FFF7AFFAB6
:10180000C82000F015F940218148FEF774FF4FF021
:10181000FF308CE70198FEF735FE7F490860002015
:101820007E49086010E0794909687D4A12887B4B3F
:101830001B6802FB0310FEF7DFFD7A49087077484A
:101840000068401C7549086074480068724909685E
:10185000884203D2734800780428E4D040216C48C1
:10186000FEF74BFF0620FFF77AFA4320FFF777FADF
:10187000C82000F0DDF840216548FEF73CFF65E038
:1018800012E0FFE740216248FEF737FF0620FFF72E
:1018900066FAC82000F0CCF840215D48FEF72BFF27
:1018A00001200390834654E00DF127014046049A3D
:1018B000FEF7ACFC5C4806604FF000092EE05A4889
:1018C0000068016851480068FEF7E8FD4F4800686D
:1018D0000068554909680968884213D040214C487E
:1018E000FEF70BFF1820FFF73AFA1820FFF737FA38
:1018F000C82000F09DF840214548FEF7FCFE6FF03F
:10190000010014E741480068001D4049086046484E
:101910000068001D4449086009F1040904988145E4
:1019200006DA394901980844384909688842C6D816
:1019300040213748FEF7E1FE0620FFF710FAC820E5
:1019400000F076F840213248FEF7D5FE7F1C0120DA
:10195000029000BF49E040212D48FEF7CEFE18203E
:10196000FFF7FDF91820FFF7FAF9C82000F060F83A
:1019700040212748FEF7BFFE6FF00200D7E62B4854
:101980000078401C2949087008460078322802D1A6
:101990006FF00300CBE60298002801DD0AF1010A8E
:1019A000BAF1050F12DD40211948FEF7A6FE1820F6
:1019B000FFF7D5F91820FFF7D2F9C82000F038F862
:1019C00040211348FEF797FE0020B0E64021104862
:1019D000FEF793FE4320FFF7C2F9C82000F028F875
:1019E00040210B48FEF787FE00BF00BF0398002888
:1019F0003FF47AAE00BF00BFBBF1000F3FF46FAE03
:101A000000BF00BF019892E60030000818000020D7
:101A1000001001408400002024000020200000204D
:101A20001C000020280000202C0000203000002096
:101A300001460A2808DD421CD0B200BF0A1EA1F1EF
:101A40000103D9B2FAD1C82170470000FFF7D0FBDB
:101A5000FEF77AFDFEF758FDFFF788FDFEF795FCCF
:101A600040211748FEF749FE16A0FFF7BFFAC8202D
:101A7000FFF7DEFF40211248FEF73DFEFEF7C4FEF1
:101A80001448006814490840B0F1005F12D1FEF715
:101A900070FC104840681149086008460068104909
:101AA00008600C49086880F3088800BF0C4800688B
:101AB000804702E00BA0FFF799FA00BFFEE70000A5
:101AC00000100140626F6F746C6F616465720D0A83
:101AD00000000000003000080000FE2F040000207D
:101AE000000000206E6F20757365722050726F6762
:101AF00072616D0D0A0A00000A0A0D2050726F67AC
:101B000072616D6D696E6720436F6D706C65746591
:101B100064205375636365737366756C6C79210A11
:101B20000D2D2D2D2D2D2D2D2D2D2D2D2D2D2D2D05
:101B30002D2D2D2D2D2D2D2D2D2D2D2D2D2D2D2DD5
:101B40002D0D0A204E616D653A2000006C1B0008C7
:101B500000000020480000006C010008B41B0008D1
:101B600048000020A00B00008801000800000000D1
:101B70000000000000000000000000000000000065
:101B80000000000000300008000800000000000015
:101B90000000000004000000000000000000000041
:101BA00000010203040102030406070809020406F7
:041BB0000800000029
:0400000508000131BD
:00000001FF
