:020000040800F2
:1040000010060020C9400008C14900083B420008D2
:1040100000000000000000000000000000000000A0
:10402000000000000000000000000000214C00081B
:104030000000000000000000154A0008D14C0008F4
:10404000F340000800000000F3400008F3400008BF
:10405000F3400008F3400008F3400008F340000874
:1040600000000000F3400008F3400008F34000089F
:10407000F3400008F3400008F3400008000000008F
:10408000354D00080000000000000000F34000086B
:10409000F3400008F3400008F3400008F340000834
:1040A000F3400008F3400008F3400008895400087A
:1040B000F34000080348854600F052F800480047E6
:1040C000B9590008100600200A4880F308880A48F9
:1040D0000168090E094A914202D109480949016063
:1040E0000948804709480047FEE7FEE7FEE7FEE78C
:1040F000FEE7FEE710060020040000001F0000009D
:104100001810024001000000D54C0008B54000081E
:1041100030B50B46014600202022012409E00D465F
:10412000D5409D4205D31D469540491B25469540E7
:1041300040191546521E002DF1DC30BD03460B43DD
:104140009B0703D009E008C9121F08C0042AFAD24D
:1041500003E00B780370401C491C521EF9D27047D3
:10416000064C0125064E05E0E36807CC2B430C3CCA
:1041700098471034B442F7D3FFF7A0FF345E00082D
:10418000445E000802488168012211438160704743
:1041900000300240F0B50022012423460D68934010
:1041A0001D409D422AD10D79012D01D0022D12D141
:1041B000876855000326AE40B74387604E79AE400E
:1041C00085682E43866085889D43858085888B79A8
:1041D00093401D438580066855000323AB409E43F2
:1041E00006600E790768AE403E430660C6689E438F
:1041F000C660CB79AB40C5682B43C360521C102A04
:10420000CBD3F0BD4B07DB0E9A40C90810B589002F
:104210000818016A0F249C40A1430162016A1143FE
:10422000016210BD0246128A00200A4200D001201D
:1042300070470185704781617047FEE770B505469C
:104240000C465D2000F0D2FC002801D000F008FCF4
:10425000064800F02DF8284600F01EF8204600F031
:1042600021F800F011F800F003F870BD555500007A
:104270000249014808607047CCCC00000030004083
:1042800010B500F001F810BD024901480860704700
:10429000AAAA0000003000400149486070470000B1
:1042A0000030004001498860704700000030004045
:1042B0000149086070470000003000401CB525200F
:1042C0000121400400F0A8FB8020009001206946F5
:1042D000087100208871C871032048710148FFF7F8
:1042E00059FF1CBD00140048FEB50F2001214004F9
:1042F00000F092FBFF20F430009001246846047126
:10430000002585710226C671032747710920694679
:10431000C006FFF73FFFFF210920F431C006FFF779
:1043200088FF17480090684604718571C67147710F
:1043300069461448FFF72EFF11491248FFF779FF2D
:104340000F480090684604718571C67147716946CF
:104350000D48FFF71FFF0A490B48FFF76AFF0420CB
:104360000090684604718571C671084C47716946B2
:104370002046FFF70FFF04212046FFF75AFFFEBD3E
:10438000FFFF00000004004800080048000C00483F
:10439000FEB5FC48017801297AD100210170FA4F5D
:1043A000FA4D384620300190284620300C46F84E11
:1043B0000090F2E2F4481438005D030001F08EF939
:1043C00029FA1626374758697A8B9CADBDCEFBF883
:1043D000F7F6F5F4F3F2F1F0EFEEEDECEBEAE9E8E5
:1043E000E7E6E5E4E3E2E1E0DFDEFA000821E948A0
:1043F000FFF721FF01203870E34814380019407896
:104400002870642801D964202870C4E209200121A1
:10441000C006FFF710FF01207870DB481438001940
:10442000407868706428F0D964206870B3E2042191
:10443000D848FFF700FF0120B870D348143800199E
:104440004078A8706428E0D96420A870A3E209200D
:104450000221C006FFF7EFFE0120F870CA481438A9
:1044600000194078E8706428CFD96420E87092E29F
:104470000421C948FFF7DFFE01203871C248143813
:104480000019407828716428BFD96420287182E21D
:1044900088E201218903BF48FFF7CDFE0120787132
:1044A000B94814380019407868716428ADD964207F
:1044B000687170E201210903B648FFF7BCFE0120D4
:1044C000B871B148143800194078A87164289CD993
:1044D0006420A8715FE20121C903AE48FFF7ABFE7B
:1044E0000120F871A848143800194078E871642850
:1044F0008BD96420E8714EE20121C902A548FFF77B
:104500009AFE01203872A0481438001940782872A9
:1045100064288BD9642028723DE201219D48FFF771
:104520008AFE012078729848143800194078687221
:1045300064288BD9642068722DE201218902954894
:10454000FFF779FE0120B8728F48143800194078BF
:10455000A87264288BD96420A8721CE202218D48BD
:10456000FFF769FE0120F872874814380019407877
:10457000E87264288BD96420E8720CE2EAE1D7E1A2
:10458000C4E1B1E19FE18DE17BE168E158E147E100
:1045900037E125E114E103E1E3E0D1E0BFE0ADE084
:1045A0009CE08BE079E068E056E045E033E022E013
:1045B00011E000E0E0E140217848FFF73CFE0120F7
:1045C000387371481438001940782873642892D9D8
:1045D00064202873DFE180217048FFF72CFE012062
:1045E000787369481438001940786873642893D93F
:1045F00064206873CFE120216848FFF71CFE01208A
:10460000B8736148143800194078A873642893D9A6
:104610006420A873BFE1FF2101316048FFF70BFE62
:104620000120F8735848143800194078E87364285A
:1046300093D96420E873AEE110215848FFF7FBFDE1
:1046400001203874504814380019407828746428C0
:1046500093D9642028749EE1012149024F48FFF755
:10466000EAFD0120787448481438001940786874CD
:104670006428AFD9642068748DE108214748FFF7AA
:10468000DAFD0120B8744048143800194078A87445
:1046900064289FD96420A8747DE1012149033D4825
:1046A000FFF7C9FD0120F874374814380019407825
:1046B000E87464288ED96420E8746CE140213548A0
:1046C000FFF7B9FD012038752F48143800194078DC
:1046D000287564288ED9642028755CE104212F4850
:1046E000FFF7A9FD01207875274814380019407894
:1046F000687564288ED9642068754CE10121C9036E
:104700002648FFF798FD0120B8751F481438001996
:104710004078A87564288ED96420A8753BE10121F2
:1047200089021E48FFF787FD0120F87516481438E6
:1047300000194078E87564288DD96420E8752AE16D
:10474000012189031548FFF776FD012038760E48D0
:10475000143800194078287664288DD9642028768A
:1047600019E10121C9020D48FFF765FD01207876A6
:104770000548143800194078687664288CD964207C
:10478000687608E1D60000204C01002010010020CE
:10479000D401002000080048000C00480004004834
:1047A000012149038048FFF746FD0120B8767F4884
:1047B00000194078A87664288FD96420A876EAE0AA
:1047C000012109037848FFF736FD0120F876774884
:1047D00000194078E87664288FD96420E876DAE01A
:1047E000FF2109200131C006FFF725FD01203877A0
:1047F0006E48001940782877642801D9642028770A
:10480000C9E010216A48FFF716FD01207877674854
:10481000001940786877642801D964206877BAE085
:10482000012149026248FFF706FD0120B8775F4881
:1048300000194078A877642801D96420A877AAE0F5
:1048400020215B48FFF7F7FC0120F8775748001953
:104850004078E877642801D96420E8779BE0FF215D
:1048600001315348FFF7E7FC0199012008704F48D8
:104870000099001940780870642801D964200870F4
:1048800089E001214848FFF7D6FC019901204870D2
:104890004648009900194078487064287BD9642004
:1048A000487078E080214248FFF7C5FC019901205B
:1048B00088703E48009900194078887064286AD949
:1048C0006420887067E002213748FFF7B4FC019943
:1048D0000120C8703548009900194078C8706428D4
:1048E00059D96420C87056E009208021C006FFF71E
:1048F000A2FC0199012008712C4800990019407808
:104900000871642847D96420087144E00920102107
:10491000C006FFF790FC01990120487123480099D7
:10492000001940784871642835D96420487132E014
:1049300009204021C006FFF77EFC01990120887103
:104940001A480099001940788871642823D9642096
:10495000887120E009202021C006FFF76CFC019936
:104960000120C8711148009900194078C871642865
:1049700011D96420C8710EE001210920C902C006C6
:10498000FFF759FC0BA000F083FE01210920C902AA
:10499000C006FFF74EFCA41CE4B2B079801FA04211
:1049A00000DD07E5FEBD00000004004838010020DE
:1049B0000008004841444E554D4552520000000049
:1049C0007047000030B5837801210278002B15D0A4
:1049D00094080E4BA400E41823689207D50EFF221A
:1049E000AA40934342789207120EAA401A432260CB
:1049F0000078C006C00E8140054804E0D006C00E15
:104A0000814003488030016030BD000000E400E0D8
:104A100000E100E070470000044A0029516901D01C
:104A2000014300E0814351617047000000100240E3
:104A3000044A0029D16901D0014300E08143D161DA
:104A40007047000000100240044A0029916901D01B
:104A5000014300E081439161704700000010024073
:104A60000348416A01221206114341627047000067
:104A700000100240F8B5564D0446686800210C222B
:104A8000544E104005D0042803D0082803D00C2829
:104A90001AD026601AE06968686803228902D20386
:104AA0000F0F1040BF1C00280AD0E86A0107090F49
:104AB0003046491CFFF72CFB78430146216005E096
:104AC000454839464143F9E7444820606868444F07
:104AD0000006000F3B5C20680246DA4062606B68AB
:104AE0005B055B0FFB5CDA40A2602B6BDB0501D43E
:104AF0003C4B05E06B685B0401D4530800E093086D
:104B0000E3602B6B5F06384B03D4374F12372761B6
:104B100000E023612F6BFF0601D4666100E0606155
:104B20002F6BBF070ED02F6BBF07BF0F012F0BD00E
:104B30002F6BBF07BF0F022F08D02F6BFF43BF079C
:104B400006D006E0A26104E0A06102E0A36100E0FB
:104B5000A6612F6BBF03BF0F0FD02F6BBF03BF0F1B
:104B6000012F0CD02F6BBF03BF0F022F09D02F6B6B
:104B7000BF03BF0F032F06D006E0E26104E0E0614F
:104B800002E0E36100E0E6612F6B3F03BF0F0FD04F
:104B90002A6B1203920F012A0CD0286B0003800F9E
:104BA000022809D0286B0003800F032806D006E0F6
:104BB000226204E0206202E0236200E02662286BA9
:104BC000000602D405486062F8BD6162F8BD0000CD
:104BD0000010024000127A0000093D00006CDC0267
:104BE000C1000020809FD500008000000346002007
:104BF0000A495A090CD0012A0CD0022A0CD0496B60
:104C0000DA06D20E012393400B4200D001207047F8
:104C10000968F5E7096AF3E7496AF1E7001002401D
:104C200070470000034A1168890889000143116038
:104C300070470000000001401CB50021224801918E
:104C40000091026801231B041A4302605B000522E5
:104C5000120304681C400094019C641C0194009C95
:104C6000002C02D1019C9442F3D10268920328D512
:104C700001210091154A112111604168416041688C
:104C8000416041687F22D203914341604168112213
:104C900012041143416001680122120611430160B0
:104CA00001688901FCD54168890889004160416833
:104CB00002221143416041680907890F0229FAD194
:104CC0001CBD00911CBD00000010024000200240ED
:104CD0007047000010B514480168012211430160BB
:104CE0004168124A114041600168114A1140016057
:104CF0000168012292049143016041683F2212043D
:104D000091434160C16A09090901C162016BFF2237
:104D1000543291430163416B4908490041630021CA
:104D20008160FFF789FF10BD001002400CB8FF083A
:104D3000FFFFF6FEF8B5FF4C0121204600F055FBC1
:104D400000287DD00121204600F042FBFA4C20785B
:104D5000401C2070F9480178002501290CD1A18D53
:104D6000F74A491C89B2A185914205D1A5850570F4
:104D70000121F44800F0CBFBF3480178012900D170
:104D80006585F24E317801292AD10570608D401C6D
:104D900080B26085642805D209208021C006FFF713
:104DA0004AFA10E06078082802D8401C6070F3E7E7
:104DB000401CC0B260700A2800D9657009208021AB
:104DC000C006FFF736FA608D7D21C901884207D9F8
:104DD00035706585092065708021C006FFF729FAC6
:104DE0002078C82805D1DA482570818A8022514070
:104DF0008182D84FD84E387801280CD1A078401C39
:104E0000C0B2A0703178814205D13D70A5700821F3
:104E1000D248FFF70EFA787801280DD1E078401CCF
:104E2000C0B2E0707178814206D17D700920E570D2
:104E30000121C006FFF7FDF9B87801280ED100E086
:104E400092E22079401CC0B22071B178814205D134
:104E5000BD7025710421C148FFF7EBF9F8780128EE
:104E60000DD16079401CC0B26071F178814206D1E9
:104E7000FD70092065710221C006FFF7DAF9387963
:104E800001280CD1A079401CC0B2A07131798142B7
:104E900005D13D71A5710421B148FFF7CAF97879B0
:104EA00001280DD1E079401CC0B2E07171798142D6
:104EB00006D17D710121E5718903A848FFF7B9F991
:104EC000B87901280DD1207A401CC0B22072B17986
:104ED000814206D1BD710121257209039F48FFF768
:104EE000A8F9F87901280DD1607A401CC0B260722F
:104EF000F179814206D1FD7101216572C90397489C
:104F0000FFF797F9387A01280DD1A07A401CC0B27A
:104F1000A072317A814206D13D720121A572C90287
:104F20008E48FFF786F9787A01280CD1E07A401C88
:104F3000C0B2E072717A814205D17D72E5720121C1
:104F40008648FFF776F9B87A01280DD1207B401CFE
:104F5000C0B22073B17A814206D1BD72012125739E
:104F600089027E48FFF765F9F87A01280CD1607B49
:104F7000401CC0B26073F17A814205D1FD72657345
:104F800002217648FFF755F9387B01280CD1A07B28
:104F9000401CC0B2A073317B814205D13D73A57323
:104FA00040217048FFF745F9787B01280CD1E07B60
:104FB000401CC0B2E073717B814205D17D73E57303
:104FC00080216848FFF735F9B87B01280CD1207C97
:104FD000401CC0B22074B17B814205D1BD732574E1
:104FE00020216048FFF725F9F87B01280DD1607C6E
:104FF000401CC0B26074F17B814206D1FD73FF2179
:10500000657401315748FFF714F9387C01280CD139
:10501000A07C401CC0B2A074317C814205D13D749B
:10502000A57410214F48FFF704F9787C01280DD1B1
:10503000E07C401CC0B2E074717C814206D17D747A
:105040000121E57449024748FFF7F3F8B87C0128CD
:105050000CD1207D401CC0B22075B17C814205D1AD
:10506000BD74257508213F48FFF7E3F8F87C012857
:105070000DD1607D401CC0B26075F17C814206D1CB
:10508000FD740121657549033448FFF7D2F8387D76
:1050900001280CD1A07D401CC0B2A075317D814299
:1050A00005D13D75A57540212C48FFF7C2F8787DE4
:1050B00001280CD1E07D401CC0B2E075717D8142B9
:1050C00005D17D75E57504212648FFF7B2F8B87D56
:1050D00001280DD1207E401CC0B22076B17D8142D6
:1050E00006D1BD7501212576C9031E48FFF7A1F839
:1050F000F87D01280DD1607E401CC0B26076F17D44
:10510000814206D1FD750121657689021548FFF7B8
:1051100090F8387E012829D1A07E401CC0B2A0762C
:10512000317E814222D13D760121A57689030D4849
:105130001AE0000000040040D80000200601002012
:10514000B80B0000003801400801002007010020D2
:10515000001400484C010020100100200008004805
:10516000000C004800040048FFF763F8787E01282F
:105170000DD1E07E401CC0B2E076717E814206D146
:105180007D760121E576C9027848FFF752F8B87EAE
:1051900001280DD1207F401CC0B22077B17E814212
:1051A00006D1BD760121257749037048FFF741F804
:1051B000F87E01280DD1607F401CC0B26077F17E7F
:1051C000814206D1FD760121657709036748FFF723
:1051D00030F8387F01280ED1A07F401CC0B2A077E4
:1051E000317F814207D13D77FF210920A577013129
:1051F000C006FFF71EF8787F01280CD1E07F401C25
:10520000C0B2E077717F814205D17D77E5771021CB
:105210005748FFF70EF8B87F564C01280DD120787B
:10522000401CC0B22070B17F814206D1BD77012100
:10523000257049024E48FEF7FCFFF87F01280CD18B
:105240006078401CC0B26070F17F814205D1FD776B
:10525000657020214648FEF7ECFF474E474F3078F7
:1052600001280DD1A078401CC0B2A07039788142CD
:1052700006D13570FF21A57001313D48FEF7D9FFF9
:10528000707801280CD1E078401CC0B2E0707978C9
:10529000814205D17570E57001213448FEF7C9FFE0
:1052A000B07801280CD12079401CC0B22071B978A7
:1052B000814205D1B570257180212D48FEF7B9FFD7
:1052C000F07801280CD16079401CC0B26071F97887
:1052D000814205D1F570657102212448FEF7A9FFCE
:1052E000307901280DD1A079401CC0B2A071397964
:1052F000814206D135710920A5718021C006FEF7D3
:1053000098FF707901280DD1E079401CC0B2E0719E
:105310007979814206D175710920E5711021C006A5
:10532000FEF787FFB07901280DD1207A401CC0B26A
:105330002072B979814206D1B571092025724021C8
:10534000C006FEF776FFF07901280DD1607A401C87
:10535000C0B26072F979814206D1F5710920657297
:105360002021C006FEF765FFF8BD000000040048DC
:1053700000080048F80000206C01002030010020E7
:105380007FB50C46054601210220FFF751FB6A4616
:1053900001951480002010810C4C508069462046F5
:1053A00000F038F801221146204600F02AF81020BB
:1053B0006A46107301215173917303A8FFF702FB32
:1053C0000121204600F007F87FBD000000040040E6
:1053D000C943018270470029018802D0012211438C
:1053E00001E049084900018070470246138A002005
:1053F00092890B400A40002B02D0002A00D00120E5
:105400007047002A828901D00A4300E08A438281E2
:105410007047000010B50288144B984206D0012452
:10542000A407A04202D0124CA04203D17024A24390
:105430004C8822430F4CA04203D00F4C22400C89D1
:10544000224302804A68C2620A880285984208D0D4
:105450000A4A904205D00A4A904202D0094A904234
:1054600001D1897A01860121818210BD002C014081
:105470000004004000100040FFFC0000004001401C
:10548000004401400048014070B51A4E18493046AA
:1054900000F04EF80025184C002817D0304600F0D8
:1054A000CDF86179C0B2012903D165712571E5712B
:1054B000A5712179104A603A50542079401C20711E
:1054C0002079642801D300F00DFB70BD0B493046F4
:1054D00000F02EF80028F8D01021304600F010F827
:1054E00001206071E0712079A071257170BD00000C
:1054F0000501050000380140D4010020040104002A
:10550000016270470A0C0121914001627047002935
:10551000016802D00122114301E0490849000160FD
:1055200070470246D26900200A4200D0012070472D
:1055300030B50A04130E0122144600258C40012BBD
:105540000ED0022B0ED08368090C2340C0698A401C
:105550001040002B02D0002800D00125284630BD85
:105560000368F1E74368EFE710B50B041C0E012355
:105570008B40022C02D0032C02D002E0001D00E080
:1055800008300168002A01D0194300E09943016006
:1055900010BD000030B5044600688BB00D464008D1
:1055A000400020606068032109038843A968014323
:1055B000616020681C49EA680840696811432A69EB
:1055C000024311432160A0680321090288436969ED
:1055D0000143A1606846FFF74DFA1448844201D1A7
:1055E00006980AE01248844201D1079805E0114864
:1055F000844201D1089800E00298216809042968D2
:1056000000D54000FEF784FD2A6852088A4200D87F
:10561000401C2168090404D50107074A490F1040BE
:105620000843A0810BB030BDF3E9FFFF0038014013
:105630000044004000480040F0FF0000808CC0059E
:10564000C00D7047C905C90D0185704710B50446E6
:10565000FFF7F8FF40212046FFF763FF0028F9D04D
:1056600040210248FFF74CFF10BD00000038014008
:10567000F8B516460D460746002406E02978384658
:105680006D1CFFF7E3FF641CE4B2B442F6D3F8BD2F
:105690000FB410B503A9044B044A029800F03AF87D
:1056A00010BC08BC04B01847955900080C01002034
:1056B0000FB41CB50A46521E0192009007A9064B72
:1056C0006A46069800F026F8009A002111701CBC6A
:1056D00008BC04B018470000E757000830B474460F
:1056E000641E2578641CAB4200D21D46635D5B00DE
:1056F000E31830BC184702E008C8121F08C1002A8E
:10570000FAD170477047002001E001C1121F002A42
:10571000FBD17047FFB581B00546002706E025287C
:105720000AD0049A039990476D1C7F1C28780028A2
:10573000F5D1384605B0F0BD002269786D1C1046E1
:105740002E2913D1697804226D1C2A2909D10299C6
:105750006D1C01C9029109E00A235843303808182A
:105760006D1C29780B46303B092BF5D92B78002B83
:10577000DFD0632B07D0732B10D0049A18460399FF
:1057800090477F1C2DE002996C460B782370091D11
:105790000291002161706E46012104E0029940C926
:1057A00002910021C94352070AD5002400E0641C7D
:1057B00084420DDA8C42FADB325D002AF7D107E031
:1057C000002400E0641C8C42FCDB305D0028F9D131
:1057D0003F1904E03078049A761C03999047641EC0
:1057E000F8D26D1CA2E74A68002A06D00A68531C4A
:1057F0000B6010704868401E4860704770B50D46D9
:105800000446FEF7BFFC0022054804E02178016051
:10581000521CD2B2641CAA42F8D3006870BD0000CA
:105820000030024010B501214020FFF7F5F810BD0F
:105830000A49498848430A49486100228A6108693F
:105840000123184308610869C30701D0C003FAD5D2
:1058500008694008400008618A617047D200002052
:1058600000E000E07CB5212001214004FFF7D4F8DE
:105870003020009000246846047184710125C571B0
:105880000326467169460848FEF784FC0C20009008
:10589000684604718471C571467109206946C00665
:1058A000FEF778FC7CBD00000014004870B5334D55
:1058B000002420212846FEF7B5FC012800D1012450
:1058C00010212846FEF7AEFC012820D0FD20044020
:1058D0000925ED0608212846FEF7A4FC012819D069
:1058E000FB20044004212846FEF79CFC012814D02C
:1058F000F720204022490300FFF7F0FE1031121478
:1059000016181A1C1E20222426282A2C2E3102208A
:105910000443DDE704200443E4E708202043E9E7EB
:1059200041221AE0422218E0432216E0442214E009
:10593000452212E0462210E047220EE048220CE009
:1059400049220AE04A2208E04B2206E04C2204E009
:105950004D2202E04E2200E04F220A7070BD012469
:10596000E40221462846FEF766FC06A0FFF790FEFB
:1059700021462846FEF75DFC582070BD0014004803
:10598000C0000020414453544F5245594552520DD6
:105990000A00000010B504460649C0B20881054857
:1059A0002038C1694906FCD54021FFF7A9FD2046F2
:1059B00010BD0000203801401649C022C803FEF780
:1059C000BDFB0320FFF72EF9FEF78EFC472112489E
:1059D000FFF7D6FCE120400200F020F8FEF76EFC55
:1059E000FFF740FFFFF71EFFFF21F5310620FEF70E
:1059F00025FC04E0FEF744FC0A20FFF719FFFFF73F
:105A000055FF5828F6D000F0B3F8FEF7C1FCFEF7BA
:105A100037FCF8E70040000887130000F1B50121CA
:105A20008AB08803FFF710F801214804FEF7F4FF5D
:105A300009210122C806FEF7E5FB092001220A21FF
:105A4000C006FEF7DFFB03204002009003266846F5
:105A5000467102270771002484710125C571092050
:105A60006946C006FEF796FBE8020090684605719D
:105A70008471C471467109206946C006FEF78AFB2D
:105A80001B21684601724772857202A8FEF79AFFD1
:105A90000A98089404940594069403900C200D4CE5
:105AA000079003A92046FFF775FD0B492046FFF735
:105AB00029FD012209492046FFF756FD0122084928
:105AC0002046FFF751FD01212046FFF720FD0BB0D6
:105AD000F0BD000000380140060106000501050088
:105AE000040104000949002210B50846134660303D
:105AF00002E08B54521CD2B284799442F9D80B70D4
:105B00000371C37101214171837110BD74010020C3
:105B1000F7B5012509260446ED02F6061746294683
:105B20003046FEF788FB3A460F4F01993846FFF79B
:105B30009FFD210E3846FFF789FD2002010E3846F1
:105B4000FFF784FD2004010E3846FFF77FFDE1B228
:105B50003846FFF77BFD05A0FFF79AFD2946304642
:105B6000FEF767FBFEBD0000003801400D0A000093
:105B7000F8B58B4DE879012875D10020E8712E46E3
:105B8000884C603E3078217888426DD1A879001F1A
:105B9000C1B23046FFF732FEAB79020E311F595CBD
:105BA0008A423FD10102AB790A0EF11E595C8A424A
:105BB000F7D10104AB790A0EB11E595C8A42F0D1CB
:105BC000AA79C1B2701E105C8142EAD170782F466A
:105BD00008374D2827D004DC442846D04C2804D16F
:105BE00013E0562870D0582826D020786C4B387097
:105BF00008336DA209211846FFF75AFD68480821AD
:105C00000830FFF7FBFD082208E020784528C8D1BE
:105C100009204021C006FEF70EFB14E06049083160
:105C2000FFF776FFB2E020784528FBD1092040211C
:105C3000C006FEF7FEFA06E020784528F2D15D495D
:105C40000120487088702078554B387008335AA26C
:105C500005211846FFF72CFD514804210830FFF7B5
:105C6000CDFD0422DAE79AE060E0A879162818D979
:105C700001210920C902C006FEF7DDFA2078484B51
:105C8000387008334EA20C211846FFF711FD50A0C2
:105C9000FFF7FEFC01210920C902C006FEF7C9FA80
:105CA00074E0A879C00710D020783D4B38700833D5
:105CB0004AA207211846FFF7FBFC394806210830A5
:105CC000FFF79CFD0622A9E722E046490120087063
:105CD0002078334B3870083337A205211846FFF778
:105CE000E7FC2F4804210830FFF788FD2C490422E7
:105CF0000831FFF70DFF00203B4904E0321892788D
:105D00000A54401CC0B2AA79D21F8242F6DA3DE0A2
:105D100001240927E402FF0621463846FEF78BFAE4
:105D200032A0FFF7B5FC21463846B7E752282DD1FF
:105D3000707845282AD1B078532827D1F0784528A3
:105D400024D13079542821D171792078814216D11B
:105D500001240925E402ED0621462846FEF76BFAE8
:105D60002EA0FFF795FC21462846FEF762FABFF306
:105D70004F8F2E492C48C860BFF34F8FFEE70D4967
:105D80000120087000212A48FFF7C1FB00200146CE
:105D900002E03154401CC0B2AA798242F9D8F8BD61
:105DA000D4010020C0000020257344434D444552D7
:105DB00052000000060100202573444F4B000000F4
:105DC0002573444E554D4558434545440000000059
:105DD00073656E646275660D0A00000025734444A5
:105DE00045525200D60000203801002076657273BB
:105DF000696F6E20322F722F6E206D61676E657431
:105E00002072656F726465722F722F6E203230318E
:105E1000392F31312F31332F722F6E004D435552B0
:105E2000455345540D0A00000400FA0500ED00E05A
:105E300000380140445E0008C0000020500000000F
:105E4000F6560008000000000001020304010203EE
:105E50000406070809000000000000000000000020
:105E60000000000000000000000000000000000032
:105E70000000000000000000000000000000000022
:105E80000000000000000000000000000000000012
:045E9000000000000E
:04000005080040B5FA
:00000001FF
