:020000040800F2
:1000000060090020D50000082D0B0008FF0500083E
:1000100000000000000000000000000000000000E0
:10002000000000000000000000000000350F000884
:100030000000000000000000810B0008CB12000847
:10004000E7000008E7000008E7000008E7000008F4
:10005000E7000008E7000008E7000008E7000008E4
:10006000E7000008E7000008E7000008E7000008D4
:10007000E7000008E7000008E7000008E7000008C4
:100080002D130008E700000800000000E70000084A
:10009000E7000008E7000008E7000008E7000008A4
:1000A000E7000008E7000008E7000008E700000894
:1000B000E700000800000000E70000080000000062
:1000C0000348854600F03CF8004800470D1800083A
:1000D000600900200448804704480047FEE7FEE727
:1000E000FEE7FEE7FEE7FEE7CD120008C1000008CC
:1000F00030B50B46014600202022012409E00D46C0
:10010000D5409D4205D31D469540491B2546954047
:1001100040191546521E002DF1DC30BD03460B433D
:100120009B0703D009E008C9121F08C0042AFAD2AD
:1001300003E00B780370401C491C521EF9D2704733
:10014000064C0125064E05E0E36807CC2B430C3C2A
:1001500098471034B442F7D3FFF7B6FF141C0008D9
:10016000341C00081FB50121022000F017FD134CBC
:10017000204601F009F9002269464A800A811048A8
:10018000019047200880204601F06EF91020694652
:1001900008730A2048730120887303A800F0C8FC84
:1001A0000021204601F05EF901221146204601F0AF
:1001B00051F90121204601F0DCF81FBD0004004088
:1001C0000F27000030B504460020651803E02178B1
:1001D000641C01F0E5F9AC42F9D3002101F0E0F92B
:1001E000002101F0DDF930BD10B5837918490268AE
:1001F000002B26D00B6893430B604A6803689A4330
:100200004A600279521813680468234313608A68AD
:1002100003689A438A60CA6803689A43CA6042794D
:10022000102A05D051180A68006802430A6010BD00
:100230008A6803681A438A60CA6800680243CA6011
:1002400010BD0079401801689143016010BD0000A5
:10025000000401400149C8607047000000200240CE
:10026000F0B50B2706463F04384600F05DF9042838
:100270000FD1084C2069022528432061666120695E
:10028000402108432061384600F04EF92169A94316
:100290002161F0BD0020024008490420CA68D2074D
:1002A00001D001207047CA68D20601D502207047EC
:1002B000C9684907FBD503207047000000200240B1
:1002C00010B53520FFF7C6FF00F0D8F8044600F05F
:1002D0002BF8002811D000F0E1F800F08BF80F2186
:1002E000C9430C43611C02D0E04300F057F80428D6
:1002F00001D0012010BD002010BD022010BD000063
:1003000070B501260446B602064D07E02046FFF709
:10031000A7FF042801D0012070BDA419AC42F5D973
:10032000002070BD00F8000810B500F0A7F80146E5
:100330000F20C043884310BD10B500F0E5F835200C
:10034000FFF788FF10BD0000F7B582B016460446DF
:100350000025114F18E0A800039900900958206863
:1003600000F0ACF8042802D0012005B0F0BD2068F0
:100370000399026800980858824201D00220F4E7ED
:100380002068001D20606D1CB54202D22068B84272
:10039000E1D90020E9E70000FBFF0008F0B5C04309
:1003A000C6B20004050E0B20000400F0BDF80428BE
:1003B0001BD10E4C21691022114321610C4FFF2EDD
:1003C00006D03E810B20000400F0AEF8042806D1D0
:1003D000FF2D06D07D810B20000400F0A5F8052834
:1003E00003D0226910218A432261F0BD002002401F
:1003F00000F8FF1FF0B5AA2500F036F8002800D05D
:1004000000250B273F04384600F08EF8042813D14E
:10041000134C206920263043206120694021084385
:100420002061384600F080F81021042805D0052806
:1004300002D022698A432261F0BD2069B043206165
:1004400020690E463043206106480580384600F09A
:100450006BF80528F0D02169B1432161F0BD00009F
:100460000020024000F8FF1F03490020C969490726
:10047000890F00D001207047002002400148006A27
:100480007047000000200240034801690122520326
:1004900011430161704700000020024004480169D7
:1004A000890503D4034981600349816070470000D6
:1004B0000020024023016745AB89EFCDF8B5064621
:1004C00000200B273F0400900D46384600F02CF822
:1004D000042815D10B4C2069012108432061358087
:1004E000384600F021F8042806D1B61C280C0096E6
:1004F0003080384600F018F8216949084900216128
:10050000F8BD00000020024004480169090603D537
:1005100003494160034941607047000000200240E8
:1005200023016745AB89EFCD00B50346FFF7B4FE65
:1005300002E0FFF7B1FE5B1E012803D0002B00D1C3
:10054000052000BD002BF4D1FAE7F0B5002201240C
:1005500023460D6893401D409D422AD10D79012DFF
:1005600001D0022D12D1876855000326AE40B74353
:1005700087604E79AE4085682E43866085889D43AE
:10058000858085888B7993401D438580066855005A
:100590000323AB409E4306600E790768AE403E439E
:1005A0000660C6689E43C660CB79AB40C5682B43E6
:1005B000C360521C102ACBD3F0BD4B07DB0E9A4010
:1005C000C90810B589000818016A0F249C40A1438E
:1005D0000162016A1143016210BD018570478161AA
:1005E000704708B500206946087000F02BF868468F
:1005F00000F090FD0028F8D06846007808BDFEE7BE
:1006000070B505460C465D2000F076FB002801D051
:1006100000F0F4FA064800F02DF8284600F01EF825
:10062000204600F021F800F011F800F003F870BD4A
:10063000555500000249014808607047CCCC0000C5
:100640000030004010B500F001F810BD024901482B
:1006500008607047AAAA00000030004001494860C5
:10066000704700000030004001498860704700007A
:100670000030004001490860704700000030004031
:10068000F3B50024104F81B026462546394602981E
:10069000FFF72EFD019A3030105502910A2138469D
:1006A000641CFFF725FD0746019800192038C07F1C
:1006B000302801D1002E04D0761C6D1C0A2DE5D304
:1006C000FEBD0024F9E7000000CA9A3BFEB50F20EA
:1006D0000121400400F056FAFF20F430009001247C
:1006E00068460471002585710226C671032747718B
:1006F00009206946C006FFF728FFFF210920F431D1
:10070000C006FFF76AFF17480090684604718571BC
:10071000C671477169461448FFF717FF114912481F
:10072000FFF75BFF0F480090684604718571C67142
:10073000477169460D48FFF708FF0A490B48FFF764
:100740004CFF04200090684604718571C671084C06
:10075000477169462046FFF7F8FE04212046FFF75F
:100760003CFFFEBDFFFF00000004004800080048F9
:10077000000C004801260925F602ED063146284600
:10078000FFF72DFF444800F0EBFC444800F0E8FC84
:10079000434800F0E5FC434800F0E2FC404800F02C
:1007A000DFFC414800F0DCFC3B4800F0D9FC3FA0F6
:1007B00000F0D6FC31462846FFF70FFFFFF7B4FDE7
:1007C0003C4C002800D00120206031462846FFF72D
:1007D00006FF39A000F0C4FC47A000F0C1FC56A001
:1007E00000F0BEFC64A000F0BBFC31462846FFF7D9
:1007F000F4FE206800280AD031462846FFF7EFFEB5
:100800006DA000F0ADFC31462846FFF7E6FE31460C
:100810002846FFF7E4FE78A000F0A2FC3146284607
:10082000FFF7DBFEFFF7DDFE312804D0332805D0CB
:1008300034280ED010E000F093FBC6E7FFF702FF6C
:100840007D494868A0606060096881F30888804736
:10085000BBE72068012806D02068002819D077A0BF
:1008600000F07EFCB1E7FFF72BFD0006000E05D07F
:1008700001280CD00228A8D180A0F1E788A000F0C0
:100880006FFC8F4800F06CFCFFF7FEFD9DE78DA02C
:10089000E6E797A0E4E70000C81B0008E41A000898
:1008A000981A00087C1B0008301B00080D0A0D0A6E
:1008B000000000004C0000200D0A3D3D3D3D3D3D47
:1008C0003D3D3D3D3D3D3D3D3D3D3D3D204D616915
:1008D0006E204D656E75203D3D3D3D3D3D3D3D3DB0
:1008E0003D3D3D3D3D3D3D3D3D3D3D3D3D3D3D3D38
:1008F0003D3D3D0D0A0A00002020446F776E6C6F6D
:10090000616420496D61676520546F2074686520BB
:1009100053544D33324630787820496E7465726E88
:10092000616C20466C617368202D2D2D2D2D2D2D91
:1009300020310D0A0A000000202055706C6F6164A0
:1009400020496D6167652046726F6D20746865206F
:1009500053544D33324630787820496E7465726E48
:10096000616C20466C617368202D2D2D2D2D2D2D51
:1009700020320D0A0A000000202045786563757456
:100980006520546865204E65772050726F677261EC
:100990006D202D2D2D2D2D2D2D2D2D2D2D2D2D2D54
:1009A0002D2D2D2D2D2D2D2D2D2D2D2D2D2D2D2D77
:1009B00020330D0A0A000000202044697361626C34
:1009C00065207468652077726974652070726F7431
:1009D000656374696F6E202D2D2D2D2D2D2D2D2DE0
:1009E0002D2D2D2D2D2D2D2D2D2D2D2D2D2D2D2D37
:1009F00020340D0A0A0000003D3D3D3D3D3D3D3D9A
:100A00003D3D3D3D3D3D3D3D3D3D3D3D3D3D3D3D16
:100A10003D3D3D3D3D3D3D3D3D3D3D3D3D3D3D3D06
:100A20003D3D3D3D3D3D3D3D3D3D3D3D3D3D3D3DF6
:100A30003D3D0D0A0A00000000400008496E766145
:100A40006C6964204E756D6265722021203D3D3ECB
:100A500020546865206E756D6265722073686F75CD
:100A60006C642062652065697468657220312C2091
:100A7000322C2033206F7220340D0000466C6173DD
:100A800068206D656D6F7279206E6F742077726962
:100A900074652070726F7465637465640D0A00007C
:100AA00057726974652050726F74656374696F6EF4
:100AB0002064697361626C65642E2E2E0D0A00003D
:100AC000F81900084572726F723A20466C617368BB
:100AD00020777269746520756E70726F74656374C7
:100AE000696F6E206661696C65642E2E2E0D0A009A
:100AF000496E76616C6964204E756D626572202165
:100B0000203D3D3E20546865206E756D6265722003
:100B100073686F756C6420626520656974686572BE
:100B200020312C2032206F7220330D0070470000DE
:100B300030B5837801210278002B15D094080E4B34
:100B4000A400E41823689207D50EFF22AA4093431D
:100B500042789207120EAA401A4322600078C0061B
:100B6000C00E8140054804E0D006C00E8140034815
:100B70008030016030BD000000E400E000E100E0F2
:100B800070470000044A0029516901D0014300E088
:100B9000814351617047000000100240044A00295F
:100BA000D16901D0014300E08143D1617047000069
:100BB00000100240044A0029116901D0014300E0FD
:100BC000814311617047000000100240044A00296F
:100BD000916901D0014300E08143916170470000B9
:100BE00000100240044A0029D16801D0014300E00E
:100BF0008143D16070470000001002400348416A01
:100C000001221206114341627047000000100240A9
:100C1000F8B5334D044668680C21324E084003D0C5
:100C2000042801D0082801D0266012E069686868AD
:100C30000122890212040F0F1040BF1C00281CD093
:100C4000E86A0107090F3046491CFFF751FA78435B
:100C500020606868244B0006000F1A5C206801467B
:100C6000D14061606A685205520F9A5CD140A16020
:100C70002A6BD20505D41D4A09E01D484743276069
:100C8000E7E76A68520401D44A0800E08A08E26093
:100C90002A6B5306174A03D4164B1233236100E024
:100CA00022612B6BDB0601D4666100E060612B6B77
:100CB0009B070FD0296B8907890F01290CD0286B5E
:100CC0008007800F022809D0286BC043800700D11D
:100CD000A661F8BDA161F8BDA061F8BDA261F8BD33
:100CE0000010024000127A0000000020809FD50012
:100CF00000093D0000800000034600200A495A090F
:100D00000CD0012A0CD0022A0CD0496BDA06D20E84
:100D1000012393400B4200D0012070470968F5E79A
:100D2000096AF3E7496AF1E70010024070B50C4622
:100D3000054606E0FFF786FC284600F0EBF901289F
:100D400004D0641EF6D20020C04370BD002070BDE8
:100D5000F7B5054682B0002008600F466846049942
:100D6000FFF7E4FF002847D168460078182815D01F
:100D700006DC012809D0022809D004283CD13FE034
:100D8000412819D0612837D116E0802401E00124E0
:100D9000A40228700126601D019019E0684604999C
:100DA000FFF7C4FF002827D168460078182823D110
:100DB0000020C043386023E0012005B0F0BDA81931
:100DC0000499FFF7B3FF002816D1761C0198B6B23C
:100DD0008642F4D3A8786978FF22504081420BD133
:100DE0002146E81CFFF7EEF929190A79CB781102A0
:100DF000194349BA814202D00020C043DDE73C607C
:100E00000020DAE7F3B50546840023492248091D8E
:100E10000059095983B008430121FFF7B3FE1E486A
:100E20000121001F0059FFF7D1FE1B486D00083853
:100E3000425D001F194E415B3059FFF7BEFB16485B
:100E4000371D801F425D001F415B3859FFF7B5FB1E
:100E5000114802211038405B00906846017103215F
:100E60004171002181710121C17130596946FFF73B
:100E70006CFB094869460E38405B00903859FFF713
:100E800064FB351F2859049900F03CFB28590121C7
:100E900000F026FB05B0F0BD741900081400002016
:100EA000F3B504468700214885B0C0590121FFF7FA
:100EB00069FE01210846FFF789FE00266846067391
:100EC000C6731A4865001038405B0290184802A9A2
:100ED000C059FFF73AFB0698012825D1134838304E
:100EE000415D0E38405D00F027F810481C30405B33
:100EF000009068460671002C03D0012C01D0082018
:100F000000E00C2069464871012468468471FFF7AF
:100F10006BF906484630415D68460174032141740F
:100F2000847404A8FFF704FE07B0F0BDA4190008FC
:100F30002C000020704700008A07130F10B50F2205
:100F40009A408C080549A40061188C6894438C6011
:100F50008A68984002438A6010BD0000000001408A
:100F6000FEB500200125092600900190ED02F6064D
:100F7000029029463046FFF732FB23A000F0F0F83C
:100F800029463046FFF729FB2E4800F01BFB041EC4
:100F900018DD29463046FFF722FB2B4800F0E0F829
:100FA0002A4800F0DDF821466846FFF769FB28A0D3
:100FB00000F0D6F8684600F0D3F828A000F0D0F88A
:100FC00029A010E0601C09D0A01C13D0E41C294605
:100FD000304615D0FFF703FB29A004E02946304630
:100FE000FFF7FDFA2EA000F0BBF829463046FFF7C8
:100FF000F4FAFEBD29463046FFF7F1FA38A0F2E7D1
:10100000FFF7EDFA3DA0EEE757616974696E67205E
:10101000666F72207468652066696C6520746F2045
:1010200062652073656E74202E2E2E2028707265E6
:1010300073732027612720746F2061626F72742997
:101040000A0D00005C000020441A00085C04002027
:101050000A0D2053697A653A200000002042797415
:1010600065730D0A000000002D2D2D2D2D2D2D2D29
:101070002D2D2D2D2D2D2D2D2D2D2D0A0000000077
:101080000A0D4661696C656420746F207265636542
:10109000697665207468652066696C65210A0D00B3
:1010A0000A0A0D54686520696D6167652073697A65
:1010B0006520697320686967686572207468616E6D
:1010C0002074686520616C6C6F7765642073706153
:1010D0006365206D656D6F7279210A0D0000000057
:1010E0000A0A0D566572696669636174696F6E20DC
:1010F0006661696C6564210A0D0000000D0A0A41F1
:10110000626F7274656420627920757365722E0A4D
:101110000D00000070B5074D04462021284600F060
:10112000E9F9002804D0284600F032FA20700120A6
:1011300070BD00000038014010B5084C0146204643
:1011400000F02AFA4021204600F0D4F90028F9D016
:101150004021204600F0C2F910BD000000380140D7
:1011600010B5044602E0FFF7E7FF641C2078002872
:10117000F9D110BD1CB500212248019100910268EF
:1011800001231B041A4302605B000522120204685B
:101190001C400094019C641C0194009C002C02D112
:1011A000019C9442F3D10268920328D50121009159
:1011B000154A1121116041684160416841604168F0
:1011C0003F221204914341604168112212041143ED
:1011D0004160016801221206114301600168890122
:1011E000FCD54168890889004160416802221143A9
:1011F000416041680907890F0229FAD11CBD00919D
:101200001CBD0000001002400020024070B500220A
:1012100004781346302C2FD14478782C01D0582CE8
:101220002AD18278002A25D00224025D002A11D01A
:101230001546413D052D06D91646613E052E02D9BB
:101240003136092E13D81E011346303B092B04D822
:101250001A4607E001200B600AE0052D01D8373A55
:1012600000E0573AB318641C0B2CDED302E00020D8
:101270000B2C00D3002070BD845C002C04D06B2CA0
:1012800004D04B2C02D007E00B6003E0002A03D00F
:10129000980208E0012015E06D2C01D04D2C04D1FE
:1012A000002A02D018050860F4E72546303D092DD4
:1012B00007D80A256B43303BE318521C0B2ADBD3BB
:1012C000D8E700200B2AD5D270BD704710B514485E
:1012D00001680122114301604168124A11404160D6
:1012E0000168114A11400160016801229204914392
:1012F000016041683F22120491434160C16A0909BB
:101300000901C162016BFF22543291430163416BB9
:1013100049084900416300218160FFF72BFF10BDA0
:10132000001002400CB8FFF8FFFFF6FE10B50C4CA1
:101330000121204600F082F8002810D0012120462B
:1013400000F014F807480178491CC9B201700A2955
:1013500005D10021017004490878401C087010BDB7
:10136000000400405800002048000020C9430182CA
:1013700070470029018802D00122114301E0490889
:101380004900018070470000254910B5884202D10C
:101390000121C41430E001218907884206D10121CE
:1013A0000846FFF707FC0021012008E01D4988429C
:1013B00008D101210220FFF7FDFB00210220FFF7E9
:1013C000F9FB10BD1849884206D101211020FFF712
:1013D000F1FB00211020F2E71449884207D184155F
:1013E00001212046FFF7E6FB00212046E7E71049F0
:1013F000884209D101210C042046FFF7F3FB0021AC
:101400002046FFF7EFFB10BD0A49884202D10121B7
:101410004C04F1E708498842F5D101218C04EBE73F
:10142000002C01400004004000100040002000405B
:101430000040014000440140004801400246138A38
:10144000002092890B400A40002B02D0002A00D0D5
:1014500001207047002A828901D00A4300E08A43B4
:10146000828170474162704710B50288144B9842E0
:1014700006D00124A407A04202D0124CA04203D1FE
:101480007024A2434C8822430F4CA04203D00F4C3F
:1014900022400C89224302804A68C2620A8802857F
:1014A000984208D00A4A904205D00A4A904202D097
:1014B000094A904201D1897A01860121818210BDB9
:1014C000002C01400004004000100040FFFC000020
:1014D0000040014000440140004801400162704763
:1014E0000029016802D00122114301E049084900A6
:1014F000016070470246D26900200A4200D00120F4
:101500007047000030B50446006887B00D464008BB
:10151000400020606068032109038843A9680143F3
:10152000616020681749EA680840696811432A69C0
:10153000024311432160A0680321090288436969BD
:101540000143A1606846FFF763FB0F48844201D165
:10155000069800E0029821680904296800D5400037
:10156000FEF7C6FD2A6852088A4200D8401C21684E
:10157000090404D50107054A490F10400843A0811A
:1015800007B030BDF3E9FFFF00380140F0FF000075
:10159000808CC005C00D7047C905C90D0185704715
:1015A000074AFF31013140004900CB0500D5401CFE
:1015B000C30300D55040CB03F5D580B2704700007F
:1015C00021100000F1B5FFB0FFB092B00021FFA8DC
:1015D00001628349C162002101240163E4020926FA
:1015E0000F4603ADF60601910020FFA90090486C5C
:1015F0008862FFF727F80122FFA912051831284653
:10160000FFF7A6FB00281AD001287AD001980028FD
:1016100000DD7F1C052F2146304673DDFEF7DFFF1E
:101620001820FFF789FD1820FFF786FD2146304678
:10163000FEF7D3FF00207FB07FB013B0F0BDFFA84E
:1016400082690027501C0DD0012811D06846417BCB
:101650000098C0B281421BD021463046FEF7BFFF42
:101660001520B6E021463046FEF7B9FF0620DBE73D
:1016700021463046FEF7B3FF0620FFF75DFD214609
:101680003046FEF7AAFFFFA8006B0028ACD07AE036
:101690000098002820D0FFA8E91C806AFEF73EFDD4
:1016A000FFA8416C80690004820CFFA82C30FEF773
:1016B0004BFE00282146304668D0FEF790FF1820E8
:1016C000FFF73AFD1820FFF737FD21463046FEF7B9
:1016D00084FF0120C043AEE76846C07B002847D0A6
:1016E0000020E91C03E03F4B1A54401C491C0A78B7
:1016F000002A01D0FF28F6DD3A4B00221A5410468A
:1017000005E052E062E0FFAB34331A54401C491C40
:101710000A78202A01D00F28F5DBFFAA00213432F5
:101720001154FFA920311046FFF770FDFFA8006A91
:101730002D49884210D921463046FEF750FF182027
:10174000FFF7FAFC1820FFF7F7FC21463046FEF7BA
:1017500044FF0020C0436EE72148FEF7D1FD21463B
:101760003046FEF73CFF0620FFF7E6FC432010E082
:1017700021463046FEF733FF0620FFF7DDFC214609
:101780003046FEF72AFFFFA8006A54E7FEF727FF5E
:101790000620FFF7D1FC21463046FEF71EFF0098D9
:1017A000401C00900120019023E721463046FEF7BF
:1017B00016FF1820FFF7C0FC1820FFF7BDFC2146DC
:1017C0003046FEF70AFF0220C04334E7FEF707FF6A
:1017D0004320FFF7B1FC21463046FEF7FEFE08E746
:1017E000004000085C04002001C0000002E008C8BE
:1017F000121F08C1002AFAD170477047002001E08B
:1018000001C1121F002AFBD17047000088B00021DF
:101810000120FFF745FBFEF78FFD0025E120400288
:10182000079502900C20069003950495059502A952
:101830002846FFF7E7FAFEF749FF00F079F8FEF7D0
:1018400091FC01240926E402F60621463046FEF703
:10185000C6FE22A0FFF784FC21463046FEF7BDFEFF
:101860002E4C6846FFF756FC002802D12078142839
:10187000F7D920784026142801D9684606702570CB
:1018800001A8FFF747FC002802D120780A28F7D9E1
:1018900020780A2801D968460671FF21F531062013
:1018A000FEF7AEFE68460078312803D1684600791D
:1018B000322810D01A4908681A4A1040CA039042C8
:1018C00008D14868184A1060184A1060096881F306
:1018D00008888047FEE7FEF74DFFFBE70D0A3D3D18
:1018E0003D3D3D3D3D3D3D3D3D3D3D3D3D3D3D3D28
:1018F000204D61696E204D656E75203D3D3D3D3D3D
:101900003D3D3D3D3D3D3D3D3D3D3D3D3D3D3D3D07
:101910003D3D3D3D3D3D3D0D0A0A00004800002093
:10192000004000080000FE2F54000020500000205E
:101930007CB501214804FFF725F90124E4020120C8
:1019400069460094087100208871C8710320092538
:101950004871ED062846FEF7F8FD21462846FEF7B9
:101960003CFE7CBD0002000409000A0001000100E9
:101970000040000000000200000002000004000817
:10198000001004000000080000000800000008002B
:101990000000100000200001000100024000800053
:1019A0000100000000000800000004000000080022
:1019B000000008000000080000000800000002000D
:1019C0000020000100010002400080000100020030
:1019D0000100020002000200020000000D000800E9
:1019E00008000900060007000000070007000700C4
:1019F00007000700070005002E2E2E616E6420618F
:101A00002053797374656D2052657365742077690E
:101A10006C6C2062652067656E6572617465642018
:101A2000746F2072656C6F616420746865206E65E8
:101A300077206F7074696F6E2062797465730D0A18
:101A4000000000000A0A0D2050726F6772616D6D10
:101A5000696E6720436F6D706C65746564205375A3
:101A6000636365737366756C6C79210A0D2D2D2D7A
:101A70002D2D2D2D2D2D2D2D2D2D2D2D2D2D2D2D96
:101A80002D2D2D2D2D2D2D2D2D2D2D2D2D0D0A20D6
:101A90004E616D653A2000000D0A3D202020202077
:101AA0002020202020202020202020202020202036
:101AB0002020202020202020202020202020202026
:101AC0002020202020202020202020202020202016
:101AD0002020202020202020202020202020203DE9
:101AE000000000000D0A3D20202020202020202082
:101AF000202020202028432920434F505952494775
:101B0000485420323031322053544D6963726F652E
:101B10006C656374726F6E696373202020202020CF
:101B200020202020202020202020203D0000000018
:101B30000D0A3D20202020202020202020202020B1
:101B40002020202020202020202020202020202095
:101B50002020202020204279204D434420417070D5
:101B60006C69636174696F6E205465616D2020201B
:101B7000202020202020203D000000000D0A3D20D4
:101B80002053544D33324630787820496E2D4170C1
:101B9000706C69636174696F6E2050726F677261F7
:101BA0006D6D696E67204170706C69636174696FF7
:101BB0006E20202856657273696F6E20312E302E8C
:101BC0003029203D000000000D0A3D3D3D3D3D3DDA
:101BD0003D3D3D3D3D3D3D3D3D3D3D3D3D3D3D3D35
:101BE0003D3D3D3D3D3D3D3D3D3D3D3D3D3D3D3D25
:101BF0003D3D3D3D3D3D3D3D3D3D3D3D3D3D3D3D15
:101C00003D3D3D3D3D3D3D3D3D3D3D3D3D3D3D3D04
:101C100000000000341C0008000000205C000000F0
:101C2000EC170008901C00085C000020040900006C
:101C3000FC17000800000000010203040102030475
:101C4000060708090038014000000048000000486D
:101C5000000800480008004800080048000C004840
:101C60000008004800040048000800480008004838
:101C7000000800480008004800000048000000007C
:101C80000000000000000000000000000000000054
:04000005080000C12E
:00000001FF
